{
  "_format": "hh-sol-artifact-1",
  "contractName": "Transactions",
  "sourceName": "contracts/Transactions.sol",
  "abi": [
    {
      "inputs": [],
      "stateMutability": "nonpayable",
      "type": "constructor"
    },
    {
      "anonymous": false,
      "inputs": [
        {
          "indexed": false,
          "internalType": "address",
          "name": "from",
          "type": "address"
        },
        {
          "indexed": false,
          "internalType": "address",
          "name": "receiver",
          "type": "address"
        },
        {
          "indexed": false,
          "internalType": "uint256",
          "name": "amount",
          "type": "uint256"
        },
        {
          "indexed": false,
          "internalType": "string",
          "name": "message",
          "type": "string"
        },
        {
          "indexed": false,
          "internalType": "uint256",
          "name": "timestamp",
          "type": "uint256"
        }
      ],
      "name": "Transfer",
      "type": "event"
    },
    {
      "inputs": [],
      "name": "myTransactions",
      "outputs": [
        {
          "components": [
            {
              "internalType": "address",
              "name": "sender",
              "type": "address"
            },
            {
              "internalType": "address",
              "name": "receiver",
              "type": "address"
            },
            {
              "internalType": "uint256",
              "name": "amount",
              "type": "uint256"
            },
            {
              "internalType": "string",
              "name": "message",
              "type": "string"
            },
            {
              "internalType": "uint256",
              "name": "timestamp",
              "type": "uint256"
            }
          ],
          "internalType": "struct Transactions.Transaction[]",
          "name": "",
          "type": "tuple[]"
        }
      ],
      "stateMutability": "view",
      "type": "function"
    },
    {
      "inputs": [
        {
          "internalType": "address payable",
          "name": "receiver",
          "type": "address"
        },
        {
          "internalType": "uint256",
          "name": "amount",
          "type": "uint256"
        },
        {
          "internalType": "string",
          "name": "message",
          "type": "string"
        }
      ],
      "name": "sendTransaction",
      "outputs": [],
      "stateMutability": "payable",
      "type": "function"
    }
  ],
  "bytecode": "0x608060405234801561001057600080fd5b5060008081905550611008806100276000396000f3fe6080604052600436106100295760003560e01c8063928cb4331461002e578063d0b5c5ca1461004a575b600080fd5b6100486004803603810190610043919061081f565b610075565b005b34801561005657600080fd5b5061005f6102fa565b60405161006c9190610a75565b60405180910390f35b813410156100b8576040517f08c379a00000000000000000000000000000000000000000000000000000000081526004016100af90610af4565b60405180910390fd5b6000808154809291906100ca90610b43565b919050555060016040518060a001604052803373ffffffffffffffffffffffffffffffffffffffff1681526020018573ffffffffffffffffffffffffffffffffffffffff16815260200184815260200183815260200142815250908060018154018082558091505060019003906000526020600020906005020160009091909190915060008201518160000160006101000a81548173ffffffffffffffffffffffffffffffffffffffff021916908373ffffffffffffffffffffffffffffffffffffffff16021790555060208201518160010160006101000a81548173ffffffffffffffffffffffffffffffffffffffff021916908373ffffffffffffffffffffffffffffffffffffffff1602179055506040820151816002015560608201518160030190816101fa9190610d97565b50608082015181600401555050600260003373ffffffffffffffffffffffffffffffffffffffff1673ffffffffffffffffffffffffffffffffffffffff16815260200190815260200160002060005490806001815401808255809150506001900390600052602060002001600090919091909150558273ffffffffffffffffffffffffffffffffffffffff166108fc839081150290604051600060405180830381858888f193505050501580156102b5573d6000803e3d6000fd5b507fc4b32d7ff75a51e487f3cbb5d3202f2efecca1f4c2b987e0039c1d3220b48a8333848484426040516102ed959493929190610f15565b60405180910390a1505050565b60606000600260003373ffffffffffffffffffffffffffffffffffffffff1673ffffffffffffffffffffffffffffffffffffffff16815260200190815260200160002080548060200260200160405190810160405280929190818152602001828054801561038757602002820191906000526020600020905b815481526020019060010190808311610373575b5050505050905060008151905060008167ffffffffffffffff8111156103b0576103af6106f4565b5b6040519080825280602002602001820160405280156103e957816020015b6103d66105d6565b8152602001906001900390816103ce5790505b50905060005b828110156105cc5760018085838151811061040d5761040c610f6f565b5b602002602001015161041f9190610f9e565b815481106104305761042f610f6f565b5b90600052602060002090600502016040518060a00160405290816000820160009054906101000a900473ffffffffffffffffffffffffffffffffffffffff1673ffffffffffffffffffffffffffffffffffffffff1673ffffffffffffffffffffffffffffffffffffffff1681526020016001820160009054906101000a900473ffffffffffffffffffffffffffffffffffffffff1673ffffffffffffffffffffffffffffffffffffffff1673ffffffffffffffffffffffffffffffffffffffff1681526020016002820154815260200160038201805461050f90610bba565b80601f016020809104026020016040519081016040528092919081815260200182805461053b90610bba565b80156105885780601f1061055d57610100808354040283529160200191610588565b820191906000526020600020905b81548152906001019060200180831161056b57829003601f168201915b505050505081526020016004820154815250508282815181106105ae576105ad610f6f565b5b602002602001018190525080806105c490610b43565b9150506103ef565b5080935050505090565b6040518060a00160405280600073ffffffffffffffffffffffffffffffffffffffff168152602001600073ffffffffffffffffffffffffffffffffffffffff1681526020016000815260200160608152602001600081525090565b6000604051905090565b600080fd5b600080fd5b600073ffffffffffffffffffffffffffffffffffffffff82169050919050565b600061067082610645565b9050919050565b61068081610665565b811461068b57600080fd5b50565b60008135905061069d81610677565b92915050565b6000819050919050565b6106b6816106a3565b81146106c157600080fd5b50565b6000813590506106d3816106ad565b92915050565b600080fd5b600080fd5b6000601f19601f8301169050919050565b7f4e487b7100000000000000000000000000000000000000000000000000000000600052604160045260246000fd5b61072c826106e3565b810181811067ffffffffffffffff8211171561074b5761074a6106f4565b5b80604052505050565b600061075e610631565b905061076a8282610723565b919050565b600067ffffffffffffffff82111561078a576107896106f4565b5b610793826106e3565b9050602081019050919050565b82818337600083830152505050565b60006107c26107bd8461076f565b610754565b9050828152602081018484840111156107de576107dd6106de565b5b6107e98482856107a0565b509392505050565b600082601f830112610806576108056106d9565b5b81356108168482602086016107af565b91505092915050565b6000806000606084860312156108385761083761063b565b5b60006108468682870161068e565b9350506020610857868287016106c4565b925050604084013567ffffffffffffffff81111561087857610877610640565b5b610884868287016107f1565b9150509250925092565b600081519050919050565b600082825260208201905092915050565b6000819050602082019050919050565b60006108c582610645565b9050919050565b6108d5816108ba565b82525050565b6108e4816106a3565b82525050565b600081519050919050565b600082825260208201905092915050565b60005b83811015610924578082015181840152602081019050610909565b60008484015250505050565b600061093b826108ea565b61094581856108f5565b9350610955818560208601610906565b61095e816106e3565b840191505092915050565b600060a08301600083015161098160008601826108cc565b50602083015161099460208601826108cc565b5060408301516109a760408601826108db565b50606083015184820360608601526109bf8282610930565b91505060808301516109d460808601826108db565b508091505092915050565b60006109eb8383610969565b905092915050565b6000602082019050919050565b6000610a0b8261088e565b610a158185610899565b935083602082028501610a27856108aa565b8060005b85811015610a635784840389528151610a4485826109df565b9450610a4f836109f3565b925060208a01995050600181019050610a2b565b50829750879550505050505092915050565b60006020820190508181036000830152610a8f8184610a00565b905092915050565b600082825260208201905092915050565b7f496e73756666696369656e742045746865722073656e74000000000000000000600082015250565b6000610ade601783610a97565b9150610ae982610aa8565b602082019050919050565b60006020820190508181036000830152610b0d81610ad1565b9050919050565b7f4e487b7100000000000000000000000000000000000000000000000000000000600052601160045260246000fd5b6000610b4e826106a3565b91507fffffffffffffffffffffffffffffffffffffffffffffffffffffffffffffffff8203610b8057610b7f610b14565b5b600182019050919050565b7f4e487b7100000000000000000000000000000000000000000000000000000000600052602260045260246000fd5b60006002820490506001821680610bd257607f821691505b602082108103610be557610be4610b8b565b5b50919050565b60008190508160005260206000209050919050565b60006020601f8301049050919050565b600082821b905092915050565b600060088302610c4d7fffffffffffffffffffffffffffffffffffffffffffffffffffffffffffffffff82610c10565b610c578683610c10565b95508019841693508086168417925050509392505050565b6000819050919050565b6000610c94610c8f610c8a846106a3565b610c6f565b6106a3565b9050919050565b6000819050919050565b610cae83610c79565b610cc2610cba82610c9b565b848454610c1d565b825550505050565b600090565b610cd7610cca565b610ce2818484610ca5565b505050565b5b81811015610d0657610cfb600082610ccf565b600181019050610ce8565b5050565b601f821115610d4b57610d1c81610beb565b610d2584610c00565b81016020851015610d34578190505b610d48610d4085610c00565b830182610ce7565b50505b505050565b600082821c905092915050565b6000610d6e60001984600802610d50565b1980831691505092915050565b6000610d878383610d5d565b9150826002028217905092915050565b610da0826108ea565b67ffffffffffffffff811115610db957610db86106f4565b5b610dc38254610bba565b610dce828285610d0a565b600060209050601f831160018114610e015760008415610def578287015190505b610df98582610d7b565b865550610e61565b601f198416610e0f86610beb565b60005b82811015610e3757848901518255600182019150602085019450602081019050610e12565b86831015610e545784890151610e50601f891682610d5d565b8355505b6001600288020188555050505b505050505050565b610e72816108ba565b82525050565b6000610e93610e8e610e8984610645565b610c6f565b610645565b9050919050565b6000610ea582610e78565b9050919050565b6000610eb782610e9a565b9050919050565b610ec781610eac565b82525050565b610ed6816106a3565b82525050565b6000610ee7826108ea565b610ef18185610a97565b9350610f01818560208601610906565b610f0a816106e3565b840191505092915050565b600060a082019050610f2a6000830188610e69565b610f376020830187610ebe565b610f446040830186610ecd565b8181036060830152610f568185610edc565b9050610f656080830184610ecd565b9695505050505050565b7f4e487b7100000000000000000000000000000000000000000000000000000000600052603260045260246000fd5b6000610fa9826106a3565b9150610fb4836106a3565b9250828203905081811115610fcc57610fcb610b14565b5b9291505056fea2646970667358221220956fc2c0e52bc0a4187f49e88bf64707b4990b30682110693ee26e8be41f837c64736f6c63430008130033",
  "linkReferences": {},
  "deployedLinkReferences": {}
}