{
  "_format": "hh-sol-artifact-1",
  "contractName": "Users",
  "sourceName": "contracts/Users.sol",
  "abi": [
    {
      "inputs": [],
      "name": "getMyInfo",
      "outputs": [
        {
          "components": [
            {
              "internalType": "string",
              "name": "username",
              "type": "string"
            },
            {
              "internalType": "string",
              "name": "avatarHash",
              "type": "string"
            },
            {
              "internalType": "address",
              "name": "userAddress",
              "type": "address"
            }
          ],
          "internalType": "struct Users.UserProfile",
          "name": "",
          "type": "tuple"
        }
      ],
      "stateMutability": "view",
      "type": "function"
    },
    {
      "inputs": [
        {
          "internalType": "address",
          "name": "_userAddress",
          "type": "address"
        }
      ],
      "name": "getUserInfo",
      "outputs": [
        {
          "components": [
            {
              "internalType": "string",
              "name": "username",
              "type": "string"
            },
            {
              "internalType": "string",
              "name": "avatarHash",
              "type": "string"
            },
            {
              "internalType": "address",
              "name": "userAddress",
              "type": "address"
            }
          ],
          "internalType": "struct Users.UserProfile",
          "name": "",
          "type": "tuple"
        }
      ],
      "stateMutability": "view",
      "type": "function"
    },
    {
      "inputs": [
        {
          "internalType": "string",
          "name": "_username",
          "type": "string"
        },
        {
          "internalType": "string",
          "name": "_avatarHash",
          "type": "string"
        }
      ],
      "name": "setInfo",
      "outputs": [],
      "stateMutability": "nonpayable",
      "type": "function"
    }
  ],
  "bytecode": "0x608060405234801561001057600080fd5b50610c2d806100206000396000f3fe608060405234801561001057600080fd5b50600436106100415760003560e01c80636386c1c7146100465780637daa10ce14610076578063a923fc4014610094575b600080fd5b610060600480360381019061005b919061061d565b6100b0565b60405161006d9190610740565b60405180910390f35b61007e610282565b60405161008b9190610740565b60405180910390f35b6100ae60048036038101906100a99190610897565b610452565b005b6100b8610574565b6000808373ffffffffffffffffffffffffffffffffffffffff1673ffffffffffffffffffffffffffffffffffffffff1681526020019081526020016000206040518060600160405290816000820180546101119061093e565b80601f016020809104026020016040519081016040528092919081815260200182805461013d9061093e565b801561018a5780601f1061015f5761010080835404028352916020019161018a565b820191906000526020600020905b81548152906001019060200180831161016d57829003601f168201915b505050505081526020016001820180546101a39061093e565b80601f01602080910402602001604051908101604052809291908181526020018280546101cf9061093e565b801561021c5780601f106101f15761010080835404028352916020019161021c565b820191906000526020600020905b8154815290600101906020018083116101ff57829003601f168201915b505050505081526020016002820160009054906101000a900473ffffffffffffffffffffffffffffffffffffffff1673ffffffffffffffffffffffffffffffffffffffff1673ffffffffffffffffffffffffffffffffffffffff16815250509050919050565b61028a610574565b6000803373ffffffffffffffffffffffffffffffffffffffff1673ffffffffffffffffffffffffffffffffffffffff1681526020019081526020016000206040518060600160405290816000820180546102e39061093e565b80601f016020809104026020016040519081016040528092919081815260200182805461030f9061093e565b801561035c5780601f106103315761010080835404028352916020019161035c565b820191906000526020600020905b81548152906001019060200180831161033f57829003601f168201915b505050505081526020016001820180546103759061093e565b80601f01602080910402602001604051908101604052809291908181526020018280546103a19061093e565b80156103ee5780601f106103c3576101008083540402835291602001916103ee565b820191906000526020600020905b8154815290600101906020018083116103d157829003601f168201915b505050505081526020016002820160009054906101000a900473ffffffffffffffffffffffffffffffffffffffff1673ffffffffffffffffffffffffffffffffffffffff1673ffffffffffffffffffffffffffffffffffffffff1681525050905090565b816000803373ffffffffffffffffffffffffffffffffffffffff1673ffffffffffffffffffffffffffffffffffffffff16815260200190815260200160002060000190816104a09190610b25565b50806000803373ffffffffffffffffffffffffffffffffffffffff1673ffffffffffffffffffffffffffffffffffffffff16815260200190815260200160002060010190816104ef9190610b25565b50336000803373ffffffffffffffffffffffffffffffffffffffff1673ffffffffffffffffffffffffffffffffffffffff16815260200190815260200160002060020160006101000a81548173ffffffffffffffffffffffffffffffffffffffff021916908373ffffffffffffffffffffffffffffffffffffffff1602179055505050565b60405180606001604052806060815260200160608152602001600073ffffffffffffffffffffffffffffffffffffffff1681525090565b6000604051905090565b600080fd5b600080fd5b600073ffffffffffffffffffffffffffffffffffffffff82169050919050565b60006105ea826105bf565b9050919050565b6105fa816105df565b811461060557600080fd5b50565b600081359050610617816105f1565b92915050565b600060208284031215610633576106326105b5565b5b600061064184828501610608565b91505092915050565b600081519050919050565b600082825260208201905092915050565b60005b83811015610684578082015181840152602081019050610669565b60008484015250505050565b6000601f19601f8301169050919050565b60006106ac8261064a565b6106b68185610655565b93506106c6818560208601610666565b6106cf81610690565b840191505092915050565b6106e3816105df565b82525050565b6000606083016000830151848203600086015261070682826106a1565b9150506020830151848203602086015261072082826106a1565b915050604083015161073560408601826106da565b508091505092915050565b6000602082019050818103600083015261075a81846106e9565b905092915050565b600080fd5b600080fd5b7f4e487b7100000000000000000000000000000000000000000000000000000000600052604160045260246000fd5b6107a482610690565b810181811067ffffffffffffffff821117156107c3576107c261076c565b5b80604052505050565b60006107d66105ab565b90506107e2828261079b565b919050565b600067ffffffffffffffff8211156108025761080161076c565b5b61080b82610690565b9050602081019050919050565b82818337600083830152505050565b600061083a610835846107e7565b6107cc565b90508281526020810184848401111561085657610855610767565b5b610861848285610818565b509392505050565b600082601f83011261087e5761087d610762565b5b813561088e848260208601610827565b91505092915050565b600080604083850312156108ae576108ad6105b5565b5b600083013567ffffffffffffffff8111156108cc576108cb6105ba565b5b6108d885828601610869565b925050602083013567ffffffffffffffff8111156108f9576108f86105ba565b5b61090585828601610869565b9150509250929050565b7f4e487b7100000000000000000000000000000000000000000000000000000000600052602260045260246000fd5b6000600282049050600182168061095657607f821691505b6020821081036109695761096861090f565b5b50919050565b60008190508160005260206000209050919050565b60006020601f8301049050919050565b600082821b905092915050565b6000600883026109d17fffffffffffffffffffffffffffffffffffffffffffffffffffffffffffffffff82610994565b6109db8683610994565b95508019841693508086168417925050509392505050565b6000819050919050565b6000819050919050565b6000610a22610a1d610a18846109f3565b6109fd565b6109f3565b9050919050565b6000819050919050565b610a3c83610a07565b610a50610a4882610a29565b8484546109a1565b825550505050565b600090565b610a65610a58565b610a70818484610a33565b505050565b5b81811015610a9457610a89600082610a5d565b600181019050610a76565b5050565b601f821115610ad957610aaa8161096f565b610ab384610984565b81016020851015610ac2578190505b610ad6610ace85610984565b830182610a75565b50505b505050565b600082821c905092915050565b6000610afc60001984600802610ade565b1980831691505092915050565b6000610b158383610aeb565b9150826002028217905092915050565b610b2e8261064a565b67ffffffffffffffff811115610b4757610b4661076c565b5b610b51825461093e565b610b5c828285610a98565b600060209050601f831160018114610b8f5760008415610b7d578287015190505b610b878582610b09565b865550610bef565b601f198416610b9d8661096f565b60005b82811015610bc557848901518255600182019150602085019450602081019050610ba0565b86831015610be25784890151610bde601f891682610aeb565b8355505b6001600288020188555050505b50505050505056fea2646970667358221220360fcb302248bf97caeb9566b05048fae3f63eaa3b38bf0359e0fd08aa53c8fb64736f6c63430008130033",
  "linkReferences": {},
  "deployedLinkReferences": {}
}